:100000000C942A000C9447000C9447000C94470071
:100010000C9447000C9447000C9447000C94470044
:100020000C9447000C9447000C9447000C94470034
:100030000C9447000C9447000C9447000C94470024
:100040000C9447000C9447000C9447000C94470014
:100050000C94470011241FBECFE5D8E0DEBFCDBF12
:1000600010E0A0E6B0E0E2E8FFE002C005900D92EB
:10007000A837B107D9F710E0A8E7B0E001C01D929A
:10008000AE37B107E1F70E9482040C94BF070C94CD
:1000900000003E9A3F9A379A329A319A0895369ADA
:1000A0003699FECF84B190E045B1342F20E0822B09
:1000B000932B0895843409F454C0853448F4823471
:1000C00099F1833408F06AC0813409F083C00FC00D
:1000D000823651F1833620F4813609F07BC007C0A7
:1000E000833609F45BC0843609F074C03AC04130ED
:1000F00069F42AB381E090E0AC0102C0440F551FBF
:100100006A95E2F7BA01622B6ABB08952AB381E0CF
:1001100090E0AC0102C0440F551F6A95E2F7BA01A6
:10012000609562236ABB0895413069F427B381E08A
:1001300090E0AC0102C0440F551F6A95E2F7BA0186
:10014000622B67BB089527B381E090E0AC0102C049
:10015000440F551F6A95E2F7BA016095622367BBA9
:100160000895413069F421B381E090E0AC0102C010
:10017000440F551F6A95E2F7BA01622B61BB0895DF
:1001800021B381E090E0AC0102C0440F551F6A9595
:10019000E2F7BA016095622361BB0895413069F4CA
:1001A00024B381E090E0AC0102C0440F551F6A9572
:1001B000E2F7BA01622B64BB089524B381E090E0BA
:1001C000AC0102C0440F551F6A95E2F7BA01609571
:1001D000622364BB0895843409F454C0853448F420
:1001E000823499F1833408F06AC0813409F083C005
:1001F0000FC0823651F1833620F4813609F07BC07E
:1002000007C0833609F45BC0843609F074C03AC075
:10021000413069F42BB381E090E0AC0102C0440F9F
:10022000551F6A95E2F7BA01622B6BBB08952BB399
:1002300081E090E0AC0102C0440F551F6A95E2F7DF
:10024000BA01609562236BBB0895413069F428B30D
:1002500081E090E0AC0102C0440F551F6A95E2F7BF
:10026000BA01622B68BB089528B381E090E0AC012D
:1002700002C0440F551F6A95E2F7BA0160956223E8
:1002800068BB0895413069F422B381E090E0AC018D
:1002900002C0440F551F6A95E2F7BA01622B62BB98
:1002A000089522B381E090E0AC0102C0440F551FD5
:1002B0006A95E2F7BA016095622362BB0895413006
:1002C00069F425B381E090E0AC0102C0440F551FF2
:1002D0006A95E2F7BA01622B65BB089525B381E008
:1002E00090E0AC0102C0440F551F6A95E2F7BA01D5
:1002F0006095622365BB0895843481F1853440F4B0
:100300008234F9F08334B8F5813409F040C00CC070
:100310008236B9F0833618F48136C9F505C08336C4
:1003200051F18436A1F51AC02BB381E090E0AC0105
:1003300002C0440F551F6A95E2F7BA0162276BBBF2
:10034000089528B381E090E0AC0102C0440F551F2E
:100350006A95E2F7BA01622768BB089522B381E08B
:1003600090E0AC0102C0440F551F6A95E2F7BA0154
:10037000622762BB089525B381E090E0AC0102C022
:10038000440F551F6A95E2F7BA01622765BB0895CD
:10039000843409F451C0853440F4823439F1833413
:1003A000C0F5813409F05AC00EC08236F9F08336A8
:1003B00020F4813609F052C006C0833651F18436EC
:1003C00009F04CC039C029B381E090E0062E02C08C
:1003D000880F991F0A94E2F730E08223932302C02A
:1003E000969587956A95E2F7982F38C026B381E0F5
:1003F00090E0062E02C0880F991F0A94E2F730E0C1
:100400008223932302C0969587956A95E2F7982FE9
:1004100025C023B381E090E0062E02C0880F991F0B
:100420000A94E2F730E08223932302C096958795E1
:100430006A95E2F7982F12C020B381E090E0062E73
:1004400002C0880F991F0A94E2F730E082239323B9
:1004500002C0969587956A95E2F7982F892F08959F
:100460008434C9F0853438F4823499F08334A8F4A4
:100470008134A1F40CC0823661F0833618F48136E1
:1004800069F405C0833649F0843641F404C06ABB80
:10049000089567BB089561BB089564BB08958434D3
:1004A000C9F0853438F4823499F08334A8F4813467
:1004B000A1F40CC0823661F0833618F4813669F4F9
:1004C00005C0833649F0843641F404C06BBB0895FF
:1004D00068BB089562BB089565BB08958434D1F06C
:1004E000853438F4823499F08334B8F48134B9F423
:1004F0000CC0823661F0833618F4813681F405C071
:10050000833659F0843659F405C099B308C086B3D0
:1005100088BB05C080B382BB02C083B385BB892F73
:1005200008958434E9F0853438F48234A9F08334B2
:10053000D8F48134E1F40CC0823671F0833618F4BB
:100540008136A9F405C0833679F0843681F408C079
:100550008BB380958BBB089588B3809588BB089535
:1005600082B3809582BB089585B3809585BB08953D
:10057000823451F1833420F4813409F07BC007C008
:10058000833409F43EC0843409F074C057C041304C
:1005900069F42BB381E090E0AC0102C0440F551F19
:1005A0006A95E2F7BA01622B6BBB08952BB381E029
:1005B00090E0AC0102C0440F551F6A95E2F7BA0102
:1005C000609562236BBB0895413069F428B381E0E4
:1005D00090E0AC0102C0440F551F6A95E2F7BA01E2
:1005E000622B68BB089528B381E090E0AC0102C0A3
:1005F000440F551F6A95E2F7BA016095622368BB04
:100600000895413069F425B381E090E0AC0102C067
:10061000440F551F6A95E2F7BA01622B65BB089536
:1006200025B381E090E0AC0102C0440F551F6A95EC
:10063000E2F7BA016095622365BB0895413069F421
:1006400022B381E090E0AC0102C0440F551F6A95CF
:10065000E2F7BA01622B62BB089522B381E090E019
:10066000AC0102C0440F551F6A95E2F7BA016095CC
:10067000622362BB08956F70823489F0833418F46A
:10068000813409F505C0833489F08434E1F415C060
:100690008BB3807F8BBB8BB3682B6BBB089588B308
:1006A000807F88BB88B3682B68BB089585B3807F43
:1006B00085BB85B3682B65BB089582B3807F82BB01
:1006C00082B3682B62BB08956295607F823489F0A3
:1006D000833418F4813409F505C0833489F08434F7
:1006E000E1F415C08BB38F708BBB8BB3682B6BBBE6
:1006F000089588B38F7088BB88B3682B68BB089552
:1007000085B38F7085BB85B3682B65BB089582B3B5
:100710008F7082BB82B3682B62BB089582E460E075
:1007200041E00E94EB008FE99FE00197F1F700C0E4
:10073000000082E460E040E00E94EB008FE99FE06F
:100740000197F1F700C000000895CF93C82F682FDC
:1007500062956F7084E40E94640382E461E040E08B
:100760000E94EB000E948E0384E46C2F0E946403BD
:1007700082E461E040E00E94EB000E948E038FEC77
:1007800097E00197F1F700C00000CF9108958FEF37
:1007900091EEA4E081509040A040E1F700C000003D
:1007A00084E464E041E00E945A0084E465E041E0B2
:1007B0000E945A0084E466E041E00E945A0084E40A
:1007C00067E041E00E945A0082E460E041E00E945C
:1007D0005A0082E462E041E00E945A0082E461E053
:1007E00041E00E945A0084E462E040E00E94EB0095
:1007F00082E00E94A503AFE1BEE41197F1F700C0CB
:10080000000088E20E94A5038FEC97E00197F1F7C2
:1008100000C000008CE00E94A503AFECB7E0119788
:10082000F1F700C0000081E00E94A5038FE19EE483
:100830000197F1F700C0000086E00E94A503AFEC2D
:10084000B7E01197F1F700C000000895CF93C82FCB
:10085000682F62956F7084E40E94640382E461E013
:1008600041E00E94EB000E948E0384E46C2F0E9402
:10087000640382E461E041E00E94EB000E948E0389
:100880008FEC97E00197F1F700C00000CF91089539
:10089000CF93DF93EC018881882331F021960E9469
:1008A000260489918823D9F7DF91CF91089581E0BB
:1008B0000E94A5038FE19EE40197F1F700C00000BC
:1008C0000895282F2150223070F4613170F466238E
:1008D00071F0813019F4962F91580AC0823041F49A
:1008E000962F915405C090E803C090E801C090E8AD
:1008F000892F0E94A5038FEC97E00197F1F700C0C4
:1009000000000895CF92DF92EF92FF920F931F9312
:10091000CF93DF930E9449000E94C70380E690E0D6
:100920000E94480484E461E041E00E945A0084E4AB
:1009300060E041E00E945A0084E462E041E00E94ED
:100940005A00CAE0D0E00DE610E0EE24FF24E39464
:100950000F2EF0E7CF2EF0E0DF2EF02D0E944F009B
:10096000BC0180E090E00E94BA0620E030E040E860
:100970005EE30E9420070E948E06AB01BC015093EB
:100980007C0040937B004A30510510F581E06DE01A
:100990000E94610480917B0090917C00BE010E94C6
:1009A000AB07805D0E9426048FED0E94260483E43D
:1009B0000E94260480E20E94260484E461E041E073
:1009C0000E94EB0084E460E040E00E94EB0049C03C
:1009D0004436510508F045C081E06DE00E94610495
:1009E00080917B0090917C00BE010E94AB07862F16
:1009F000805D0E94260480917B0090917C00BE0166
:100A00000E94AB07805D0E9426048FED0E942604A1
:100A100083E40E94260480917B0090917C008233C5
:100A2000910580F084E461E040E00E94EB0084E402
:100A300060E041E00E94EB0084E462E041E00E945B
:100A4000EB000FC084E461E041E00E94EB0084E42D
:100A500060E040E00E94EB0084E462E040E00E943D
:100A6000EB0080917500909176008A30910508F036
:100A70005AC082E061E00E9461048091730090910D
:100A80007400BE010E94AB07862F805D0E94260481
:100A90008091730090917400BE010E94AB07805D4D
:100AA0000E94260482E063E00E9461048AE30E94BF
:100AB000260482E064E00E946104809179009091B4
:100AC0007A00BE010E94AB07805D0E94260482E08E
:100AD00065E00E9461048091750090917600BE01EE
:100AE0000E94AB07805D0E942604809178008823D5
:100AF00039F482E066E00E946104C8010E94480463
:100B00008FEF99E6A8E181509040A040E1F700C046
:100B10000000809175009091760001969093760088
:100B200080937500CDC080917500909176008C33D4
:100B3000910540F080917300909174008C30910584
:100B400008F466C082E061E00E9461048091730055
:100B500090917400BE010E94AB07862F805D0E94B9
:100B600026048091730090917400BE010E94AB072F
:100B7000805D0E94260482E063E00E9461048AE3B3
:100B80000E94260482E064E00E9461048091750066
:100B900090917600BE010E94AB07862F805D0E9477
:100BA00026048091750090917600BE010E94AB07EB
:100BB000805D0E94260480917800882339F482E0C9
:100BC00066E00E946104C8010E9448048FEF99E624
:100BD000A8E181509040A040E1F700C00000809162
:100BE0007500909176008B33910541F480917300EC
:100BF000909174008C30910509F485C08091750046
:100C0000909176000196909376008093750058C07D
:100C100080917500909176008C33910541F0809120
:100C20007300909174008A30910508F049C01092C9
:100C30007600109275008091730090917400019677
:100C4000909374008093730082E061E00E946104DD
:100C50008091790090917A00BE010E94AB07805D7F
:100C60000E94260482E062E00E9461048091730089
:100C700090917400BE010E94AB07805D0E94260423
:100C800082E063E00E9461048AE30E94260482E01D
:100C900064E00E9461048091750090917600BE012D
:100CA0000E94AB07805D0E94260480917800882313
:100CB00039F482E066E00E946104C8010E944804A1
:100CC00080917500909176008B33910509F046CEA6
:100CD00080917300909174008C30910509F03ECEA4
:100CE0001092760010927500F0927400E0927300FA
:100CF00081E08093780082E066E00E946104C60192
:100D00000E9448042BCE80E090E0DF91CF911F91AC
:100D10000F91FF90EF90DF90CF90089570D088F002
:100D20009F5790F0B92F9927B751A0F0D1F0660FD7
:100D3000771F881F991F1AF0BA95C9F712C0B130F2
:100D400081F077D0B1E0089574C0672F782F88279D
:100D5000B85F39F0B93FCCF3869577956795B39531
:100D6000D9F73EF490958095709561957F4F8F4FA0
:100D70009F4F0895E89409C097FB3EF490958095A5
:100D8000709561957F4F8F4F9F4F9923A9F0F92F51
:100D900096E9BB279395F695879577956795B795CF
:100DA000F111F8CFFAF4BB0F11F460FF1BC06F5FB5
:100DB0007F4F8F4F9F4F16C0882311F096E911C0C7
:100DC000772321F09EE8872F762F05C0662371F0E8
:100DD00096E8862F70E060E02AF09A95660F771FFC
:100DE000881FDAF7880F9695879597F9089557FD2C
:100DF0009058440F551F59F05F3F71F04795880F89
:100E000097FB991F61F09F3F79F08795089512161F
:100E100013061406551FF2CF4695F1DF08C01616CB
:100E200017061806991FF1CF86957105610508947C
:100E30000895E894BB2766277727CB0197F9089593
:100E40000BD078C069D028F06ED018F0952309F047
:100E50005AC05FC01124EECFCADFA0F3959FD1F333
:100E6000950F50E0551F629FF001729FBB27F00D58
:100E7000B11D639FAA27F00DB11DAA1F649F6627AD
:100E8000B00DA11D661F829F2227B00DA11D621FFC
:100E9000739FB00DA11D621F839FA00D611D221FB6
:100EA000749F3327A00D611D231F849F600D211D9A
:100EB000822F762F6A2F11249F5750408AF0E1F03D
:100EC00088234AF0EE0FFF1FBB1F661F771F881F86
:100ED00091505040A9F79E3F510570F014C0AACF21
:100EE0005F3FECF3983EDCF3869577956795B79571
:100EF000F795E7959F5FC1F7FE2B880F911D96959B
:100F0000879597F9089597F99F6780E870E060E00A
:100F100008959FEF80EC089500240A941616170692
:100F200018060906089500240A94121613061406DA
:100F300005060895092E0394000C11F4882352F03D
:100F4000BB0F40F4BF2B11F460FF04C06F5F7F4FF5
:100F50008F4F9F4F0895AA1BBB1B51E107C0AA1FCB
:100F6000BB1FA617B70710F0A61BB70B881F991F4A
:100F70005A95A9F780959095BC01CD010895F894F4
:020F8000FFCFA1
:100F820074656D70657261747572653D00414D00E6
:080F9200504D000C003200007C
:00000001FF
